:020000040001F9
:10C00000185500208DC4010095C4010097C401009B
:10C0100099C401009BC401009DC401000000000000
:10C020000000000000000000000000009FC40100AC
:10C03000A1C4010000000000A3C40100A5C40100C8
:10C04000A7C40100A7C40100B1CA0100A7C4010030
:10C05000A7C40100A7C4010091C5010061C7010088
:10C06000A7C40100A7C40100A7C40100A7C4010020
:10C07000A7C40100A7C40100A7C40100A7C4010010
:10C08000A7C401003DC70100A7C40100A7C4010067
:10C090001DC80100A7C4010021C80100A7C40100F8
:10C0A000A7C40100A7C40100A7C40100A7C40100E0
:10C0B000A7C40100A7C401000000000000000000A8
:10C0C000A7C40100A7C40100A7C40100A7C40100C0
:10C0D000A7C40100A7C40100A7C40100000000001C
:10C0E0000000000000000000000000000000000050
:10C0F0000000000000000000000000000000000040
:10C10000000000000000000000000000000000002F
:10C11000000000000000000000000000000000001F
:10C40000DFF80CD000F086F8004800472109020050
:10C4100018550020401E00BF00BF00BF00BF00BF76
:10C4200000BF00BF00BF00BF00BF00BF00BF00BF14
:10C4300000BF00BF00BF00BF00BF00BF00BF00BF04
:10C4400000BF00BF00BF00BF00BF00BF00BF00BFF4
:10C4500000BF00BF00BF00BF00BF00BF00BF00BFE4
:10C4600000BF00BF00BF00BF00BF00BF00BF00BFD4
:10C4700000BF00BF00BF00BF00BF00BF00BF00BFC4
:10C4800000BF00BF00BFC5D170470000064880470D
:10C4900006480047FEE7FEE7FEE7FEE7FEE7FEE7A9
:10C4A000FEE7FEE7FEE7FEE745C8010001C4010024
:10C4B00040EA01039B0703D009E008C9121F08C026
:10C4C000042AFAD203E011F8013B00F8013B521EA6
:10C4D000F9D27047D2B201E000F8012B491EFBD21D
:10C4E00070470022F6E710B513460A46044619467F
:10C4F000FFF7F0FF204610BD30B50446002003468C
:10C5000000E05B1C934203D2E05CCD5C401BF8D0A2
:10C5100030BD0000064C074D06E0E06840F0010326
:10C5200094E8070098471034AC42F6D3FFF76CFF4D
:10C530005C4D02007C4D020070B58C1810F8015B58
:10C5400015F0070301D110F8013B2A1106D110F8AC
:10C55000012B03E010F8016B01F8016B5B1EF9D1B0
:10C560002B0705D40023521E0DD401F8013BFAE736
:10C5700010F8013BCB1A921C03E013F8015B01F8A1
:10C58000015B521EF9D5A142D8D3002070BD000036
:10C590002DE9FC5F0025DFF83491A8464FF4807642
:10C5A00001242F46304604F0EDFE38B1D9F80403DB
:10C5B000204203D0304604F0DBFE2543361D6400E4
:10C5C0007F1CB6B2082FEDD34FF4BE74204604F0A2
:10C5D000D9FE38B1204604F0CBFE3D4845F0004579
:10C5E000D0F800803B4E15F0FF0F14D00127002437
:10C5F0002F420CD009EB8401D1F81005D1F81015A9
:10C60000C0F3042056F82420C1F3014190477F0075
:10C61000641C082CECD3002D56DA00200190401E3B
:10C620004CE0701910F8501F90F9000021F0C00480
:10C63000401C38D0012000FA04FA1AEA090F32D05F
:10C640004FEA911B204602F061F956F82000009055
:10C6500010B9BBF1030F26D15146BBF1030F02D134
:10C66000019808430190A00000F1A040D0F8000715
:10C670001AEA080FC0F3014002D0022802D012E0EB
:10C68000032810D1BBF1030F07D102281AD00221D1
:10C69000204604F05EFE7F1CFFB2009818B1009A9D
:10C6A0005946204690476D1C042DBAD3002F0BD05D
:10C6B00007480068404507D080460198002781461A
:10C6C0003D46AEE70321E3E7BDE8FC9F0060004084
:10C6D000100500500030002000F01F0201219140A1
:10C6E0004009800000F1E020C0F88012704700F09F
:10C6F0001F02012191404009800000F1E020C0F8B4
:10C700000011704700F01F02012191404009800094
:10C7100000F1E020C0F8001270474907090E002818
:10C7200006DA00F00F0000F1E02080F8141D7047D9
:10C7300000F1E02080F80014704700000748002155
:10C74000C0F84011C0F84411C0F84811C0F84C11AD
:10C75000C0F80011C0F8041107F0D2BD001001406C
:10C760002DE9FE434FF4827004F04EFEDFF89C800A
:10C77000274C00264FF00109A8B1264940460E601B
:10C780008DF800606168019123490968ADF80810CF
:10C79000E168A1B16160A18A2181E660C0F80090E2
:10C7A0002168684688474FF48A7004F02DFE48B12E
:10C7B00018481030066084F82760BDE8FE8384F8CE
:10C7C0002760EDE727691EE0B7FA87F04FF00041D8
:10C7D000C1408F434FF48C7101EB8005284604F073
:10C7E00013FE80B145F80860A5F58C75E8088DF852
:10C7F000040045F38000401C8DF800908DF8050082
:10C80000216868468847002FDED1D6E700700040D7
:10C8100058300020047100403476004007F00CBD11
:10C82000074810B5406830B18047002807D0BDE800
:10C83000104000F0F7BBBDE8104003F0ADBC10BDE8
:10C840000C22002070B58D480023021D0178101DB8
:10C850000124062907D115782D0704D10578C5F3E1
:10C860000315032D02D0062904D00FE0854E844D18
:10C8700075670EE015782D0708D10578C5F3031507
:10C88000032D06D0042D04D0052D02D0062909D091
:10C8900010E04FF08055D5F844527B4EC5F3423539
:10C8A000356002E015782D0704D10578C5F303152E
:10C8B000032D02D0062906D011E0744D2E6826F013
:10C8C00080762E600EE015782D0708D10578C5F327
:10C8D0000315032D06D0042D04D0052D02D0062902
:10C8E0000AD011E04FF08045C5F80C31C5F8103181
:10C8F000654D2D1F2B6002E015782D0704D10578BA
:10C90000C5F30315032D02D0062905D00CE05E4ABD
:10C910000321643211600AE015782D0704D10578EF
:10C92000C5F30315032D02D006290DD06AE0584A3D
:10C9300005211160564978310C60554908310B606A
:10C940003F21121D116002E0117809075AD10078C9
:10C95000C0F30310052855D14E4800684E490860C1
:10C960004C48001D0068091D08604A4808300068EE
:10C97000091D086047480C300068091D08604548DB
:10C9800010300068091D0860424814300068091D15
:10C9900008604048183000683F49203108603D4831
:10C9A0001C300068091D08603A4820300068091DE5
:10C9B0000860384824300068091D08603548283070
:10C9C0000068091D086033482C300068091D0860A4
:10C9D0003048303000683049403108602D483430EC
:10C9E0000068091D08602B4838300068091D086080
:10C9F00028483C300068091D08602648403000681F
:10CA0000091D086021487438016841F47001016013
:10CA1000BFF34F8FBFF36F8F4FF01021D1F800029B
:10CA2000002803DBD1F80402002822DA1B4A146034
:10CA30001B480468002CFCD01524C1F8004205688E
:10CA4000002DFCD0C1F8044201680029FCD013601D
:10CA500001680029FCD0BFF34F8F0C48F038016803
:10CA6000104A01F4E06111430160BFF34F8F00BF32
:10CA7000FDE70E490C48086070BD0000E00F00F0B3
:10CA80000DF0ADBA00C007403C050040FCED00E0F1
:10CA9000105600400404001020C5004004E5014089
:10CAA00000E401400400FA050090D0032022002099
:10CAB0000348007F08B107F0AFBD07F029BD0000B3
:10CAC0008430002002E008C8121F08C1002AFAD1F1
:10CAD00070477047002001E001C1121F002AFBD1FE
:10CAE000704700001CB51249002004F0EDF908B1B0
:10CAF00000F098FA0F49D1E90201CDE90001694639
:10CB0000002004F0BDF908B100F08CFA01210A48B8
:10CB100004F06CF908B100F085FA07480121801C87
:10CB200004F064F9002801D000F07CFA1CBD00007C
:10CB30003D3402003C4C02008220002010B550B170
:10CB400049B102780B789A4205D10622401C491C53
:10CB5000FFF7D2FC08B1002010BD012010BD2DE967
:10CB6000FC5F0025168807461580406B14468946F1
:10CB7000A8464FF00C0A11234FF0020B98B1017830
:10CB80004846032E48D380F800B02288521C92B247
:10CB9000228083542288521C92B2228009F802100B
:10CBA0002088401C20803A6BDAB12088494600F189
:10CBB0001205B54230D80B5420881023401C80B297
:10CBC00020800B542088401C20800F202388155C77
:10CBD000401ECD54238840B25B1C23800028F5DA28
:10CBE000454697F82E0030B133462246494603F0B9
:10CBF00066FB050011D197F82D0030B13246214671
:10CC0000484601F0A5F9050007D1B87820B320887F
:10CC1000C846001DB04202D95046BDE8FC9F684698
:10CC200079DF0028F9D12188032008F80100208845
:10CC30001921401C80B2208008F800102088401C78
:10CC400080B2208000EB0801BDF8000007F050FD25
:10CC50000146208808442080F878B8B1228897F9E6
:10CC60000310D31C4846B342D6D800F802B022883D
:10CC70000123521C92B2228083542288521C92B209
:10CC8000228009F802102088401C20807868B8B102
:10CC9000218890F90020CB1C4846B342BCD800F84C
:10CCA00001B021880A23491C89B22180435421887C
:10CCB000491C89B2218009F801202088401C20806D
:10CCC000388950B1CDE900464B460622022107F1D2
:10CCD000080007F082FD05009FD1388A50B1CDE9E8
:10CCE00000464B460722032107F1100007F075FDAF
:10CCF000050092D1388B50B1CDE900464B46152244
:10CD0000142107F1180007F068FD050085D1386A85
:10CD100030B133462246494601F0B0FE0500DBD172
:10CD2000786A30B133462246494603F093FE050047
:10CD3000D2D197F82C0038B13346224649463846BE
:10CD400006F046FE0500C7D1387838B13346224692
:10CD50004946384603F0B0FE0500BDD128465CE7E1
:10CD600010B501220221002001F0EAFB08B10728DA
:10CD700010D107220221012001F0E2FB08B10728AF
:10CD800008D100210A22084601F0DAFB08B1072881
:10CD900000D1002010BD10B5032000F06DFD00286B
:10CDA00003D0BDE8104000F03DB910BD70B58CB0A7
:10CDB00015460E4600236C46C3F10F01415CE15459
:10CDC0005B1C102BF8D30D2104F11000FFF789FB39
:10CDD0000020C0F10F02315C2244401C1174032872
:10CDE000F7D368464DDF0020C0F10F01214491F8D0
:10CDF00020102954401C0328F6D30CB070BD70B528
:10CE000090B005461C216846FFF76BFB9DF80000BB
:10CE1000002440F004008DF80000039401268DF8F2
:10CE2000366042F60620ADF834000C949DF83000D0
:10CE3000019420F0FF008DF830009DF8310004943B
:10CE400020F00F00401C20F0F00020308DF8310061
:10CE50009DF83200059420F00600801C20F0190097
:10CE60008DF832000694142107A8FFF73AFB0DA8AD
:10CE700007900CA88DF838400890ADF824600EA8F3
:10CE8000ADF82640ADF828600B90A888AB1D07AA26
:10CE90006946A2DF10B070BDF0B58FB00D460646F2
:10CEA0001C216846FFF71DFB00249DF80000039439
:10CEB00040F00A008DF80000012701948DF83670CB
:10CEC00042F60620049405940694ADF834000C94C0
:10CED000687A8DF83000A87A8DF831009DF832001C
:10CEE000142120F00600801C20F019008DF832007B
:10CEF00007A8FFF7F6FA287A8DF838000DA80790F2
:10CF00000CA80890ADF824700EA8ADF82640ADF836
:10CF100028700B90308906F10A0307AA6946A2DF40
:10CF20000FB0F0BD10B528B1012805D002280CD1F2
:10CF3000102002E0112000E00D2001F023FB00286A
:10CF400003D0BDE8104000F06DB810BD0648006881
:10CF50004FF40021044A8143121D1160111D00F499
:10CF600000200860704700000405005070B50024E0
:10CF7000064D06E06868012110F8340003F04AFE0F
:10CF8000641C28788442F5D3002070BDB4210020B1
:10CF9000F8B515460C460646052A01D20720F8BD0D
:10CFA00003F01AFF18B903F0EDFE0028F7D110497D
:10CFB00000204E600C70C1E902500E4D08610DE07A
:10CFC00006EBC4006968009181788DF80110007843
:10CFD000094A694603F070FE0028E0D1641EE4B2FD
:10CFE000EED2BDE8F840054A0021024800F04EB8F4
:10CFF000B4210020344D0200E5FA010099EC010053
:10D00000BFF34F8F05480168054A01F4E061114301
:10D010000160BFF34F8F00BFFDE700000CED00E0A3
:10D020000400FA050EB500210091CDE901106A4611
:10D0300044F20100FFF7E4FF0EBD10B58268C3683B
:10D04000934203D002F062F9002010BD052010BD0C
:10D0500029B112B1531E134203D0092070470E208C
:10D0600070470160838000218160C160084670477D
:10D0700010B58268C3689A1A83889A4203D802F06E
:10D080004FF9002010BD042010BD0000074B9B6825
:10D0900023B12AB120B10068037C1BB1082070477E
:10D0A000072070474174426100207047C82100206A
:10D0B0002DE9F0478046994614460F4690074FF0F9
:10D0C000000634D11C4D8CB306F066F90320C5F878
:10D0D0001490287004F11800002107EB4703AC609E
:10D0E00004EBC102491C167056709770506000EB3B
:10D0F000C3000329F4DBEE606E70AE701420FFF7FE
:10D10000EBFA06211420FFF708FB1420FFF7EFFAD3
:10D110000A49C1F8008006211120FFF7FEFA0748EE
:10D12000001F006828610020BDE8F08701E00720AB
:10D13000FAE7AE60FBE70000C821002008150140B7
:10D140002DE9F843DFF870900D461746D9F808101E
:10D15000044651B34CB3052D02D20720BDE8F88335
:10D16000606910B3607C012821D0002607F002FB23
:10D17000D9F80810804601EBC800694607F019FB92
:10D18000B8B1012100F8041B0C4910C0096880E8FF
:10D19000E200D9F8081001EBC8009DF800104170BA
:10D1A0001420FFF7AFFA0020D8E70820D6E72E4674
:10D1B000DCE70420D2E70000C8210020041501406C
:10D1C000F8B5124E0446B168E1B1DCB16069C8B18E
:10D1D0000027277407F0CEFA0546B068694600EBD1
:10D1E000C50007F0E6FA78B1022101704460B0682A
:10D1F0009DF8001000EBC50041701420FFF782FA83
:10D200003846F8BD0820F8BD0420F8BDC82100202C
:10D2100070B50446234888B01E460D00426035D0E4
:10D22000A888296882B22048FFF712FF00282ED173
:10D23000A889A96882B21C481030FFF709FF0028AE
:10D2400025D1202219496846FFF732F9A0680690D7
:10D25000207900B101208DF814008DF81C606079F0
:10D2600000B10E208DF81500E0780290A0780390B0
:10D2700020780190607800900D49684603F06EFEBA
:10D28000002804D19DF81D0018B104E0072008B063
:10D2900070BD03F0F3FE03480121401C03F0A8FE1B
:10D2A000F5E7000088210020E02F0020F04C02006C
:10D2B0006944020030B5EFF3108172B60D4A9468EC
:10D2C000012324B10370002900D162B630BD936000
:10D2D0004FF0E023D3F88051074C25401560C3F888
:10D2E0008041D3F8844154605A17C3F88421002246
:10D2F0000270E8E708350020FC06FFBC0B498A688D
:10D30000002A11D000280FD1EFF3108072B60B68FD
:10D310004FF0E022C2F800314B68C2F8043100221D
:10D320008A60002800D162B67047000008350020EE
:10D330002DE9F04104460078184F012606FA00F066
:10D340003860206803F0FBFF0021606803F0EEFF07
:10D350001348144D007FA069C5F82405607D217D28
:10D360000843C5F86C05D4E90001C5F80C05C5F8FB
:10D370001415207D01280FD10021A06803F0D6FFED
:10D38000207B86403E60E06803F0D9FFD4E90201CB
:10D39000C5F80815C5F81005BDE8F081080500506E
:10D3A00084300020002000402DE9F043044687B07F
:10D3B000008800F0E9FC8146208802F01BFE214F26
:10D3C0008046667A797B20880022A56800F02AFDD5
:10D3D000B9F1000F33D06079400711D507214046DD
:10D3E00004F060FEA0B108218DF80C102188059092
:10D3F000ADF80E10ADF8108003A801F0A5FD07E010
:10D40000F97B208800F0FAFC10B1404602F0D6FD0E
:10D4100003208DF800002088ADF802006079C0F389
:10D4200080008DF80400A079C0F380008DF805001D
:10D430008DF806508DF80760684601F085FD07B04D
:10D44000BDE8F0831821002000B585B0142168469E
:10D45000FFF747F81B48009001208DF804000020DA
:10D46000029064208DF80C009DF80D00694620F0B4
:10D470000F00401C20F0F00010308DF80D009DF8DA
:10D480000E0020F00F00401C20F0F00010308DF84E
:10D490000E009DF80F0020F0FF008DF80F009DF8A2
:10D4A000100020F00F00401C20F0F00010308DF82C
:10D4B0001000054800F00DFB002801D0FFF7B2FD79
:10D4C00005B000BD5D140200D02600202DE9F04318
:10D4D0000546007D93B00E460024A0B107949DF848
:10D4E0001C0020F00F00401C20F0F00010308DF8E0
:10D4F0001C00707B8DF81D009DF81E0020F00600BA
:10D50000801C8DF81E001C216846FEF7EAFF9DF87E
:10D51000000040F002008DF80000297D11B140F0BC
:10D52000100001E020F010008DF800000194039439
:10D530000494287D00B107A8CDE9050401278DF8E2
:10D54000427042F61920ADF840000D94B07B8DF882
:10D550003400F07B8DF835009DF83600142120F062
:10D560000600801C20F019008DF83600307B8DF805
:10D57000440008A8FEF7B5FF0DF140080DF134098D
:10D58000ADF8287011A8CDE90889ADF82A40ADF8AA
:10D590002C700C90A888AB1D08AA6946A2DF002851
:10D5A00038D1B06898B38DF8427042F60810ADF8E3
:10D5B00040000D94307C8DF834009DF8350020F04B
:10D5C000FF008DF835009DF8360020F00600801C25
:10D5D00020F019008DF836000EA8B16800F041FE69
:10D5E0000646142108A8FEF77CFFADF828600EA8B7
:10D5F000CDE90889ADF82A40ADF82C600C90E88898
:10D6000005F10E0208A9A3DF002803D101E0FFE71E
:10D61000EC81002013B0BDE8F08310B503F08EFC60
:10D62000002803D0BDE81040FFF7FCBC10BDF0B5EA
:10D630000C4693B01F210726ADF80010ADF804107A
:10D64000002750B1C17849070DD56A4602A9FFF7F6
:10D6500086FA002808D102AD02E00025ADF800707E
:10D660006CB1E07810B1304613B0F0BD01AA0AA940
:10D670002046FFF774FA0028F6D10AAA02E0002239
:10D68000ADF80470BDF80400C3B2BDF80000C1B22B
:10D69000284672DFE8E7000070B50D46049916468B
:10D6A000040040D0F6B3414800224271C0E9033182
:10D6B000242231463E48FEF7FBFE00F0D5F83C49F7
:10D6C0003431A1F1100001602031816038215C38D3
:10D6D000FEF707FF3648217838380170A17881704D
:10D6E000E178C17061784170D4E90412C0E9041294
:10D6F000D4E90212C0E90212D4E90612C0E9061206
:10D70000616AD1B100F1AC0100F1B80241628A60F6
:10D71000636A1B880B80616A436A8988998000214B
:10D72000436A07E0FFE70E2070BD666AB668765C64
:10D730005654491C9E888E42F7D8A16AD9B11C4A1A
:10D74000AC32A2F10C018A608162A36A9B888B8053
:10D75000A16A836A098819800021836A04E0A66AA5
:10D76000B668765C5654491C9E888E42F7D894F869
:10D770002C1080F82C10216A49B10C491431016237
:10D78000226A52884A80216A026A09881180616887
:10D7900021B10649891D4160616841602946BDE8A3
:10D7A000704003483838FFF742BF0000B82000201F
:10D7B000A427002010B502881D4C102A18D0002183
:10D7C000112A1BD01B2A18D1007A002815D16079A4
:10D7D000012820D0022824D0032824D004280CD1EA
:10D7E0002171E2680846002A07D0BDE810401047C2
:10D7F000817D012901D18088208110BD61708088E0
:10D8000021898842F9D1012006E021690029F4D05C
:10D81000BDE810400847022000F02EF80028F4D19F
:10D8200010BD0320F8E7032020710420F4E7000076
:10D83000B820002010B5022801D0032810D1094CCF
:10D84000207800280CD000202070607900F014F8B7
:10D85000002805D02169002902D0BDE81040084702
:10D8600010BD0000B82000200248002181618183A2
:10D8700081777047B82000202DE9F04F744C87B0B5
:10D880000026607106A8069605F076FB0127082899
:10D8900001D030B903E006A801F01AFE18B90698C5
:10D8A00008B12770C0E0FFF7DFFF6A4DDFF8A08105
:10D8B0004FF0020A687808F118084FF0030B10B116
:10D8C0006079012806D0A87858B16079012801D084
:10D8D00002281FD1E16819B1E7700820884700E0ED
:10D8E000E6706079012806D1687840B108F101003E
:10D8F00004F058FF18B16079022802D00AE084F8D9
:10D9000005A0A87820B108F1010004F04BFF08B988
:10D9100084F805B0287B4FF0040920B9607903280A
:10D9200001D184F80590287E20B96079042801D1BE
:10D9300066712671E16841B16079032801D004283D
:10D9400003D1287808B16078C0B1A6701821684664
:10D95000FEF7C7FD8DF8006001968DF8086003960C
:10D96000607901280ED0022816D03A4E2436A6F14E
:10D970005C0703281DD004284CD13AE0A77007208B
:10D980008847E3E7ADF81260CDF804808DF80070A9
:10D99000ADF8106027713FE0CDF804808DF800707D
:10D9A0002889ADF81200A888ADF8100084F804A00A
:10D9B00032E0A88AADF81200288AADF81000254898
:10D9C000243006F071FF18B1287808B1607810B1E2
:10D9D00084F804B01EE01F488DF808A0039687F86D
:10D9E000039000213838FFF722FE00281DD10520C2
:10D9F0002BE0A88BADF81000288CADF8120015486C
:10DA0000243006F051FF18B1287808B1607878B159
:10DA100084F80490607918B1684673DF002804D157
:10DA2000E16809B120798847002007B0BDE8F08F90
:10DA300008488DF808A0039687F80390002138382D
:10DA4000FFF7F5FD0028F0D106202071E2E7000085
:10DA5000B8200020A427002073B586B0040034D07D
:10DA6000217C9DF81C20002091422CD0002501260D
:10DA70000095ADF8006007A8ADF802500190E1886C
:10DA8000608A6A46A4DF00281DD19DF81C0020741E
:10DA9000608AA0F57F41FF3919D0207DB8B1029589
:10DAA000039504950595E088ADF80800BDF80200DF
:10DAB000ADF80C0001988DF80A60CDF810D00590F3
:10DAC000608A02A9A6DF08B070BD0E20FBE708201F
:10DAD000F9E738B50D4604001BD0D5B128682060A1
:10DAE0004FF6FF70608228792075FF202074012096
:10DAF0008DF8020041F60F00ADF80000221D6946C6
:10DB00000120A0DF002803D129462046FFF7DEFCD4
:10DB100038BD0E2038BD08B5002821D000291FD0FF
:10DB20000A88102A17D0112A17D0502A18D1027D3E
:10DB3000002A15D031F8062F43899A4210D14A891C
:10DB4000022A0DD10268002A0AD0097B11F0010FC8
:10DB500007D0002106E0898801E04FF6FF7141827D
:10DB600008BD01218DF800106946904708BD0000EE
:10DB700070B5054601461C220F48FEF799FC0F4C74
:10DB800000262670286830B1016861604068A06096
:10DB9000201D7ADF02E00948001D7BDF00280AD142
:10DBA0004FF6FF7060806670BDE87040044A002147
:10DBB0000448FFF76BBA70BD90280020D8200020E1
:10DBC000FD460200884C020070B51E4C06880025F8
:10DBD0001B49E289102E15D01B4B112E1CD0122E82
:10DBE00029D0502E17D130F8061F914213D1418908
:10DBF000022910D1007B10F0010F11D0BDE8704058
:10DC000000F082BF83884B808369CB60C069086164
:10DC10004D70002AF2D070BD4FF6FF7048804D70F5
:10DC20001868FFF7CDFA0028F5D0A1690029F2D0D5
:10DC3000BDE8704008478268CA60C0680861DDE7D7
:10DC4000D820002090280020884C020002490A7D3C
:10DC5000091D05F005BD0000AC2800200246024861
:10DC6000C17D001D05F0E9BCAC2800200246024839
:10DC7000017E001D05F0E1BCAC2800202DE9F04735
:10DC8000044603883F4801228CB000F1150A102B8E
:10DC900009D0112B55D01A2B71D1217AB2EB111F5B
:10DCA00054D2012353E0027D417D05468A43011D84
:10DCB00006A805F0D5FC142206A901A8FEF7F8FB7A
:10DCC000DFF8C0900026374609F114090DF1040869
:10DCD0000AE000BF08EB46001D2283884946281D44
:10DCE000009705F06FFC761C0198B042F2D8287DB1
:10DCF000A688C043C0B205F087FCA0F57F41FF397C
:10DD000017D005EB40000123868032465146281D7E
:10DD100005F0CBFC012332464946281D05F0C5FC21
:10DD2000A07D02280BD000231649A2881631281D99
:10DD300020E00CB00420BDE8F047FFF773B90123E1
:10DD4000F2E70023A2885146001D13E000230D498D
:10DD50000546A2881731001D05F0A7FC207A022194
:10DD6000B1EB101F01D2012300E000230549A28876
:10DD70001831281D0CB0BDE8F04705F096BC0CB07A
:10DD8000BDE8F087AC28002070B50A4E0546002497
:10DD9000317D2A46301D05F050FC40B1B17D2A4648
:10DDA000301D05F04AFC08B1022400E001242046A1
:10DDB00070BD0000AC28002010B50024204606F0FD
:10DDC000CDFC28B1641CE4B2182CF7D3182010BD88
:10DDD00003480122A240016811430160204610BDA2
:10DDE000AC28002010B5044606F0B8FC002802D08C
:10DDF00001482044407E10BDAC28002070B5054687
:10DE00000C46084606F0AAFC002808D004482A461A
:10DE10000119001D497EBDE8704005F00EBC70BDC3
:10DE2000AC28002070B5064615460C46084606F09C
:10DE300095FC002809D005482B4601193246BDE85B
:10DE40007040001D193105F030BC70BDAC280020B9
:10DE500070B540B10C4D297839B1044605F078FA17
:10DE600028B1002070BD0E2070BD082070BDE8688C
:10DE7000062807D20549226801EB8001401C0A6090
:10DE8000E860EEE7042070BDEC200020E0280020D0
:10DE900040B1054900220123CA600B70C1E90102AB
:10DEA000104670470E207047EC20002000281FD03D
:10DEB00000291DD00F4A1278002A19D00A88112A89
:10DEC0000ED0302A06D0322A07D0332A10D1091DAD
:10DED00003F0B0BB091D03F063BC091D03F024BBB4
:10DEE0008988B0F8AA21914202D1002180F8A711B7
:10DEF00070470000EC20002010B50B46040009D04C
:10DF00001148017841B1C16831B194F8A71129B124
:10DF1000112010BD0E2010BD082010BDA4F8AA319C
:10DF20000021816084F8A811084884F8A6112246CF
:10DF3000006820600121184690DF0028EDD1012003
:10DF400084F8A701002010BDEC200020E02800206C
:10DF50007CB5054608880C460930904201D90C2052
:10DF60007CBD684671DF0028FAD1218808206854FA
:10DF700020881B21401C80B2208029542088401C0E
:10DF800080B220802844DDF801100160BDF8051042
:10DF900081802088801D80B220809DF8001001B112
:10DFA000012129542088401C208000207CBD0000D5
:10DFB00010B50446FFF762FE204604F0BBFE214682
:10DFC0001448FFF773FF2046FFF7FEFD2146124875
:10DFD00000F0D5F810482146103000F016F90E4830
:10DFE00021462430FFF797FD0B4821463C3000F0D6
:10DFF0003EF8094821460C3800F08BF9204600F025
:10E00000B5F9204603F044FA2046BDE81040FFF77A
:10E01000D1BB0000F4240020AC26002018B10181FF
:10E02000C282002070470E207047C8B10A68BAB19A
:10E03000B1B104C0496842F6062202C04FF6FF7132
:10E0400020F8081B0021C180012100F8021920F8E6
:10E05000022900F8021941F602010180FFF7F8BE1B
:10E060000E207047C08A002800D0012070471FB5DD
:10E070000988112911D104464FF6FF7020812046EE
:10E08000FFF7F0FF002808D002208DF8000022687A
:10E090006946204690470020E0821FBD7FB50024DE
:10E0A000009401220194029403948DF800204A8880
:10E0B000ADF802200A7801F10E0312BB8A88A2F59E
:10E0C000C055023D1DD18A79012A1AD1002215E0DE
:10E0D00002EB420533F82560A6F60626B6F5005F8A
:10E0E0000BD103EB85052E79760706D52E680196B0
:10E0F0006E6802962D89ADF80C50521C0D7A95422F
:10E10000E6D8BDF80C1009B18DF8004002686946E8
:10E1100090477FBD13B584B00446FFF7A3FFA0B1BD
:10E120002089E48A00230122009305A90193ADF818
:10E1300002400224ADF8043002918DF80040ADF8A1
:10E140000620694698DF06B010BD0520FBE738B50C
:10E150000446086888B1206001208DF8020041F66D
:10E160000200ADF80000221D69460120A0DF002852
:10E1700002D12046FEF743FE38BD072038BD08B562
:10E180000A88102A13D0502A10D131F8062FC388DC
:10E190009A420BD14A89012A08D100228DF8002029
:10E1A000097B8DF8011002686946904708BD89888F
:10E1B000C18108BD1CB5002201230092ADF80030DA
:10E1C000ADF8022001914189408A6A46A5DF1CBD55
:10E1D00038B5044608680D46A8B1206068686060DC
:10E1E00001208DF8020041F60300ADF8000004F1B3
:10E1F000080269460120A0DF002803D129462046F5
:10E20000FEF74AFE38BD072038BD38B50B8800221E
:10E21000102B0DD0112B0ED0192B1CD1097A0029EF
:10E2200019D18DF800208DF801206946026816E0AA
:10E2300089884182F5E70446087A08280BD18DF8D1
:10E24000002020460DF10101FFF7B4FF20B1616805
:10E25000002900D0884738BD22686946204690478B
:10E2600038BD0A780270497841700220704700007A
:10E2700000B5184887B00023406805904822164929
:10E2800005A805F0ABFF08B1FEF7CCFE6A460121F8
:10E29000002005F08DFF08B1FEF7C4FE0F4805F021
:10E2A00045F908B1FEF7BEFE684605F077FF08B1F4
:10E2B000FEF7B8FE0A4805F067FF08B1FEF7B2FEA8
:10E2C000084805F0A5FF002801D0FEF7ABFE07B017
:10E2D00000BD00003C4C0200AC240020E81F0020E0
:10E2E000B1DF01002542020038B5044601208DF857
:10E2F000020041F604000D46ADF8000022466946D2
:10E300000120A0DF002803D12946204606F05EF850
:10E3100038BD0A88102A01D18988418170470000E0
:10E320007CB5114E0C004FF00005306015D06946E9
:10E33000002000F0B1F8002815D101A9012000F05B
:10E34000ABF800280FD19DF8041009B1022003E0BA
:10E350009DF8001001B10B202070706810B9FEF715
:10E36000FFFC054628467CBDB020002010B51A4CA5
:10E370000188606810290ED011292BD1401E6060E1
:10E3800028D1FEF7EDFC002824D02168002921D0F7
:10E39000BDE810400847D0B900210122084600F02E
:10E3A000CFF808B107280FD107220221012000F081
:10E3B000C7F808B1072807D104220221002000F085
:10E3C000BFF820B1072802D0216801B188476068F2
:10E3D000401C606010BD0000B020002010B503207C
:10E3E00000F040FA08B1062800D1002010BD00005E
:10E3F0002DE9F04707460024244802E0641C042C61
:10E4000041D250F82420BA42F8D1042C3BD21F4804
:10E41000DFF87C901F4E0C38A9F1140841B3012994
:10E420000FD002292FD104EB440030444578002D51
:10E4300029D0D8F81010002925D02846BDE8F0478B
:10E44000084704EB4401755C0E44717861B1D8F85B
:10E4500004100F4A01EB81014900133A8068FEF76E
:10E460006FFE08B988F80170B17809F80410DEE78A
:10E470008068FEF7A5FE04EB4401314419F804005E
:10E480008D78A842D3D0BDE8F0870000584C020038
:10E49000AC2000204027002004280CD2074A126834
:10E4A000074B13F8203001209840904300D0012002
:10E4B0000870002070470020FAE7000010050050A7
:10E4C000584C020010B504280DD00A2807D00D289A
:10E4D00011D00E280ED1112000F054F809E0BDE84B
:10E4E000104005F023BB14481321008976DF08286B
:10E4F00000D0A8B910BD114C20780028FAD060785F
:10E5000090B100210C48FFF705FE78B1A0F540510D
:10E510000439EFD043F201418842EBD00528E9D01D
:10E52000BDE81040FEF77EBD0221EBE7607880F089
:10E530000100607010BD0000E8260020802000204F
:10E5400070B50023042810D20D4D00EB4004012AC1
:10E5500002D101290CD00022094E00EB40003044CA
:10E5600061B1012906D0022906D00723184670BDE3
:10E570000D30C2B22A55F9E74270F7E78270F5E72D
:10E5800040270020044A01460020127AD20702D018
:10E59000084600F055B870479820002070B50E4628
:10E5A0002149054600200A61C1E90165A9071BD57B
:10E5B0000024012211462046FFF7C2FF641C042CF0
:10E5C00002D20028F5D00FE070B972080421174874
:10E5D000FEF7DEFC40B9FEF7C9FC28B91348144A1F
:10E5E00000211438FEF752FDE9070AD0114A4FF412
:10E5F000F01111600F4B00221B1D1A600D4A1032E2
:10E60000116000280FD109480B4A00211C38FEF781
:10E610003DFD002807D1BDE8704004480121074AAC
:10E620001838FEF733BD70BD98200020684C0200FA
:10E63000A1E8010008050050150302004DCF0100BC
:10E640002DE9F84F854EDFF810A24FF4E01CF16879
:10E6500007462CEA010C0091002071680AF10404BD
:10E66000251D7F4B4FF400324FF4802B01EB810EC0
:10E670008146182F16D2DFE807F00C17173A4E60C4
:10E680007083868F868FEAA0A0A0A0A0CAD1D8E10F
:10E69000EAEA009A4FF4F01191432160C5F8009026
:10E6A00086F80090BDE8F88FC4F800C04846C5F869
:10E6B0000090DAF800C08CF4F01C5FEA8C3C09D5BD
:10E6C00022602860022F02D14FF4E16008E04FF48D
:10E6D0007A6005E02A602060022F3CD04FF4C870B9
:10E6E0006422B0FBF2F04143377000225EE0C4F8D0
:10E6F00000C04846C5F80090DAF800C08CF4F01C61
:10E700005FEA8C3C04D5226028604FF44870E7E74C
:10E710002A6020601FE0C4F800C04846C5F8009099
:10E72000DAF800C08CF4F01C5FEA8C3C02D5226061
:10E730002860CCE72A602060D0E7C4F800C04846D3
:10E74000C5F80090DAF800C08CF4F01C5FEA8C3C4D
:10E75000DED522602860C820C2E7C4F800C0484661
:10E76000C5F80090DAF800C08CF4F01C5FEA8C3C2D
:10E7700002D52260286001E02A602060377014E032
:10E78000C4F800C04DE0DAF800002BEA0002226075
:10E7900000F48020286008E0DAF800002BEA00018D
:10E7A000216000F480202860714600221868BDE8CE
:10E7B000F84FFEF7C5BC21602EE098465868FEF77A
:10E7C000FFFCD7F1110100D040B1F16801F4F01164
:10E7D0002160C5F80090C6F80C9063E74FF4002262
:10E7E000F26001290CD9C82011FB00F16420B1FBB3
:10E7F000F0F1706800224143D8F80400FEF7A0FC55
:10E80000F16801F4F0112960C4F800904AE74FF470
:10E81000F0112160C5F80090377043E74FF4E01124
:10E8200021604946C5F8009006E04FF4D011216000
:10E830004946C5F800905A462A60BCE74FF4C0111B
:10E8400021604946C5F800904FF4C022F4E74FF428
:10E85000F01129604946AEE70405005098200020D9
:10E860004C4C020070B500210C4D012455F82120BC
:10E87000920002F1A042D2F8006704FA01F30340CB
:10E8800000D0032326F4403646EA0343C2F800379B
:10E89000491C0429EAD3002070BD0000584C020036
:10E8A00000780221FFF7A4BD05494FF0FF32082888
:10E8B00041F8202002D3084480F848207047000027
:10E8C00000300020F0B54FF0FF3512B100230826CC
:10E8D00001E008230C260C4C05E000BF54F823701F
:10E8E0007F1C04D05B1CB342F8D32846F0BD261829
:10E8F0005DB286F8305044F82310002AF5D1E118B3
:10E9000081F84800F1E70000003000200249084487
:10E9100090F93000704700000030002008B5024632
:10E9200090F8A6010B46C0EBC00000EB800002EBA4
:10E93000400092F8A52142B1521ED2B202EB420130
:10E9400000EB8102518A491C00E0C188ADF800103B
:10E950000089ADF802006946184692DF08BD000044
:10E9600038B10549814204D80449814201D90120C6
:10E97000704700207047000024220020342200202D
:10E98000044A0168914201D0083101E00149383957
:10E99000016070476432002070B504464FF6FF7581
:10E9A0000A462846AC4208D14FF4807421461046EE
:10E9B00004F07CF9A04209D070BDFF2CFCD82146A0
:10E9C000104604F066F908B1204670BD284670BDB7
:10E9D0002DE9F05F2648C168F1B3DFF898B00E6802
:10E9E0008146DBF800400769C078E11B21F07F45D4
:10E9F000ED1CB0B9DFF880804FF48030C8F84403D4
:10EA0000C8F804031120FDF767FE1120FDF76FFE23
:10EA10004FF0010AC8F800A02F20FDF7FBFC89F891
:10EA200003A0B54200D23546124BE8193C3320F022
:10EA30007F401860DBF800105A46091B21F07F4127
:10EA4000001B20F07F40C91C81420FD9106818605C
:10EA50002F20FDF7DFFC00E004E0BDE8F05F1120AF
:10EA6000FDF750BEBDE8F05F04F096BCBDE8F09F36
:10EA7000C821002004150140001001402DE9F0419B
:10EA800017880646B81D14460D46984202D90C2038
:10EA9000BDE8F0813188072206290AD34FF4486C7B
:10EAA0004FF6FF73614501D9994202D1708806285B
:10EAB00001D21046ECE7604501D99842F9D199425C
:10EAC00003D0984201D08142F3D80520E855208830
:10EAD0001221401C80B2208029542088401C80B222
:10EAE00020804119308805F003FE2188084480B257
:10EAF00020804119708805F0FBFD218808442080A2
:10EB00000020C5E7FEF78EBAF8B5134801F07CFB8C
:10EB1000114D0026114C0C3D30B16169B9B1012095
:10EB20008DF80000684611E0287820B1616971B164
:10EB30008DF80060F6E7687858B1A16808480022AF
:10EB40000068FEF7FDFA10B1A16901B188472E7087
:10EB5000F8BD6168F2E70000E42000209028002062
:10EB6000884C020001460148FFF798BAE8260020C9
:10EB70002DE9FF410C4618B1012004B0BDE8F08139
:10EB800020790027DFF87C80012638B141F61D5539
:10EB900001281ED0022829D00F20EEE70297039704
:10EBA000E0680190694601A804F022FB68B1029870
:10EBB0008188E18000882081029804F08DFBBDF8F7
:10EBC000002008EB02118E7300E00A20022121715F
:10EBD000D3E70D4B6A460021A01D04F0C5FA38B1F9
:10EBE000094908398F60CF600A28C6D12846C4E792
:10EBF000019804F071FB04498A8808EB02118E73B6
:10EC0000F2E7000074320020F02100202DE9F843E3
:10EC1000054690F8A60195F8A541C0EBC00000EBB1
:10EC2000800005EB40060F4604EB4400914606EBDE
:10EC300080013279601C0A31904226D16B46002255
:10EC4000284601F0EFFA18B310E0401EA04201D1AF
:10EC5000002004E004EB440006EB80001630804600
:10EC600002466B46284601F0DDFA30B100203870CC
:10EC70006946484693DFBDE8F88395F8A50141460B
:10EC8000401C641C85F8A501E4B23079A042DCD8B0
:10EC9000012038700020EEE72DE9F0410026012523
:10ECA000144C22E06068226900EBC607387805FA48
:10ECB00000F1114217D08A43226102F059F802464E
:10ECC0003878E36805FA00F1194002FA00F3994236
:10ECD00009D17978012901D0012100E000215140BA
:10ECE0007A6802B19047761CF6B220788642D9D372
:10ECF000BDE8F081B42100202DE9F047894690F865
:10ED0000A6119046C1EBC10101EB810100EB410767
:10ED1000384604F01DFB060039D01E4CA0680628BA
:10ED200035D21D4D00EB800005EB00104622A0F807
:10ED300002803946001DFDF7BBFB0027B9F1000F2B
:10ED400006D0A06800EB800005EB0010077006E01D
:10ED5000A168022001EB810105EB01110870A06898
:10ED600000EB800105EB0111401CCE64A060E1685E
:10ED700088420CD1002606E006EB860005EB001069
:10ED8000C16C8847761CE0688642F5D3A760BDE871
:10ED9000F0870000EC200020F828002030B50D4658
:10EDA00090F8A61193B0C1EBC10101EB81011446AB
:10EDB00000EB410004F0CCFA030007D0ADF80240AC
:10EDC00001208DF8000068460195984713B030BDCA
:10EDD0000E4910B54A788C780023A24212D0521CFA
:10EDE000D2B24A70022A00D14B70084A4B781832CE
:10EDF00052F8232002600869104420F07F40086127
:10EE0000012010BD0360002010BD0000C8210020BB
:10EE10003EB5094D38CD8DE83800ADF804100749EE
:10EE20008DF80620ADF80200497B0022FEF7FAFFBC
:10EE3000684600F089F83EBDE44C0200182100202D
:10EE400010B503780022072B06D2DFE803F0050493
:10EE5000060C1C252B000A7010BD01220A700289C5
:10EE60008A81828814E002220A7002898A8182885B
:10EE7000CA81C2688A60007C062802D0002008741B
:10EE800010BD0120FBE703220A70C2888A81028933
:10EE9000CA81C068886010BD04230B70C088888157
:10EEA000CA8110BD0520087010BD000070B5064D68
:10EEB0000646002455F8241009B130468847641CE2
:10EEC000032CF7D370BD0000A83100200EB5002937
:10EED00011D011290FD0002200920292ADF8020049
:10EEE00001910D2908D0042908D009208DF80000CF
:10EEF000684600F03BF80EBD0B20F7E70A20F5E767
:10EF000070B506460024064D05E000BF55F82410F4
:10EF100030468847641C287BA042F7D870BD0000AB
:10EF2000D82A002070B506460024064D06E000BF32
:10EF300005EB8400016930468847641C287FA042A5
:10EF4000F6DC70BDC02F002070B506460024064DCB
:10EF500005E000BF55F8241030468847641C287B24
:10EF6000A042F7DC70BD00001821002070B50646F5
:10EF70000024064D05E000BF55F8241030468847B0
:10EF8000641C287BA042F7D870BD000068210020D7
:10EF900028B100224260826001601046704705205F
:10EFA000704700007FB5416859B100210391017895
:10EFB00000252F4C062954D2DFE801F05305151B1C
:10EFC0002D4D0121F2E7416801B103218DF80010B8
:10EFD0008189A1F54041ADF80210817B8DF80410C4
:10EFE0004168039112E0416809B10421EEE7012173
:10EFF000ECE7416869B105218DF800108189A1F520
:10F000004041ADF80210817B8DF8041080680290B9
:10F0100024E00221F0E7C18901BB8189A1F57F428B
:10F02000FF3A1BD0A1F5404189B2FF22ADF8021092
:10F030008DF80420406838B107208DF8000065770E
:10F04000A57703F0B9FB09E006208DF8000008461B
:10F0500003F040FCF3E708208DF80000684603F059
:10F0600061F9A07F002802D0A57703F0A5FB7FBD42
:10F07000102C002000B5114987B00978890702D407
:10F08000022007B000BDA0F57F41FF3911D0052156
:10F090008DF8001001218DF80410ADF80600002253
:10F0A0001146684602F0F2FB28B104F03FF8002058
:10F0B000E7E70420E5E70820E3E70000E821002077
:10F0C00000B50E4887B00078800702D4022007B050
:10F0D00000BD06208DF8000000221146684602F0AF
:10F0E000D5FB40B10648017809B10121017304F054
:10F0F0001DF80020EBE70820E9E70000E8210020E8
:10F100009432002000B58DB014216846FDF7E9F96E
:10F110001E480078810703D56846FFF7C7FE33E035
:10F12000C00731D1012000F01FF900F08DF902F085
:10F1300041FC70B106280FD001218DF814100C2865
:10F140001BD2DFE800F01A101A101A181A181A1237
:10F1500016120B200DB000BD022000F005F90120B1
:10F1600000F0E8F8D8E7002000E003208DF8180050
:10F1700003E00220FAE78DF818100022114605A8D6
:10F1800002F084FB03F0D2FF0020E3E7E821002037
:10F1900038B5040011D0694604F02AF888B10A484D
:10F1A000BDF8001000EB0110818941B1A27A32B1A3
:10F1B000491E81810020A07238BD052038BD06207F
:10F1C00038BD0A2038BD0000743200201FB501A9E7
:10F1D000684603F0C9FF04B010BD07B513460A46E0
:10F1E0006946002003F0C0FF0EBD07B513460A466E
:10F1F0000021684603F0B8FF0EBD20B119B10068C8
:10F2000008600020704705207047000038B50D46A3
:10F21000040015D0A5B1694603F0EAFF90B10A4990
:10F22000BDF80020606801EB02129189491C9181B0
:10F23000286060680C3068600120A072002038BD32
:10F24000052038BD0A2038BD7432002018B10323D0
:10F25000002205F093BB052070470223002205F031
:10F260008DBB12B1022305F089BB05207047000059
:10F27000064A5178032906D0054B43F82100491C62
:10F280005170002070470C2070470000E8210020DA
:10F29000A831002038B504460A480D46007880079A
:10F2A00001D4022038BD54B16946284605F09CFCC3
:10F2B0000028F7D1BDF800102180658038BD0520F9
:10F2C00038BD0000E821002010B504460D48007844
:10F2D000800701D4022010BD84B1218802290FD8F3
:10F2E000094800EB011042896088121A032A07D4EA
:10F2F00005F070FC00202080608010BD052010BD4E
:10F30000042010BDE8210020743200208268838828
:10F310001A4003689A5C0A708168491C81607047D2
:10F32000C26883881A4003689954C168491CC16047
:10F330007047000002490A7882430A707047000053
:10F34000E821002010B504460078182802D1FEF705
:10F3500033FD207010BD10B504460078182802D186
:10F36000FEF72AFD207010BD02490A7802430A7098
:10F3700070470000E821002070B5134600220646C1
:10F380001546042905D0112901D019B170BD0125F8
:10F3900000E001220D4C7BB1A17CFEF743FD617CB6
:10F3A0002A463046FEF73EFDA17B00223046FEF79E
:10F3B00039FD617B002204E0A17BFEF733FD617B18
:10F3C0002A463046BDE87040FEF72CBD682100207B
:10F3D000F8B50646194815460C460078C00708D00F
:10F3E0003046FFF7BDFA30B13CB1200507D006200A
:10F3F000F8BD0120F8BD0220F8BD0320F8BD30683B
:10F40000A04204D8716804EB0530884201D9052078
:10F41000F8BD75B1684603F0D7FD60B100980221D0
:10F4200006600171210B0181858103F08FFE0020B0
:10F43000F8BD0420F8BD0720F8BD00000022002020
:10F44000084603F0DDBD00002DE9F0431D49DFF85B
:10F450007890A1EB090006094FF010204169481C83
:10F4600003D14FF0805040690103DFF86080002233
:10F47000551E98F800C05FEACC7002D00020BDE8AD
:10F48000F083002417E00023184609E009EB001779
:10F49000A84204D07F7B9F4201D33B460246401CDA
:10F4A000B042F3D309EB021015464160037B641CA4
:10F4B000A1EB03310160B442E5D34CF0010088F8C0
:10F4C0000000DBE73422002024220020002200205C
:10F4D00020B10349496D0160002070470320704747
:10F4E000A4320020F8B507461B481E461546007892
:10F4F0000C46C0070BD03846FFF732FA48B155B179
:10F500004CB145EA0400800707D00620F8BD012071
:10F51000F8BD0220F8BD0320F8BD3868A04204D829
:10F52000786804EB8601884201D20520F8BD76B1E7
:10F53000684603F049FD60B1009801210760017140
:10F54000C0E90254068203F001FE0020F8BD042049
:10F55000F8BD0720F8BD00000022002070B5174A52
:10F5600017490446106D0B7800EB800002EB800019
:10F570009D0715D5022C02D0032C1BD102E002F00E
:10F58000E5F817E04A78521CD2B24A70032A11D922
:10F5900000224A70082104F05FF903F0FFFC09E043
:10F5A000580707D523F004000870526D12B140F0DF
:10F5B00002000870BDE8704003F080BDA432002056
:10F5C000002200200EB519A19DF8080020F00F00C0
:10F5D000401C20F0F00010308DF808000B2202A82B
:10F5E0007CDF08B1FDF71EFD4FF4107078DF08B125
:10F5F000FDF718FD00204FF4C87100900190ADF8A0
:10F600000400ADF800104A00ADF80220ADF8061075
:10F6100068467ADF08B1FDF705FD6FF0070077DF78
:10F62000002801D0FDF7FEFC0EBD00004E6F726495
:10F6300069635F50726F780070B508B1012070BDCA
:10F64000184C0025207B08B1257301E000F09EF8DE
:10F650002078082824D2DFE800F02304080C1023C7
:10F66000141EBDE8704000F01FB8BDE8704000F007
:10F670007BB8BDE8704000F05FB8BDE8704000F0B6
:10F6800037B808496088203901EB00104068BDE8B0
:10F69000704002F077B96560BDE8704002F07CB957
:10F6A0000F2070BD943200201049F0B48A1C002055
:10F6B0000346A1F120050C18A67A3EB1A37205EB12
:10F6C0000014A68916B9A47B012C0AD0401C80B274
:10F6D0000228F0D30B704B804B60F0BC41F61D50FC
:10F6E00070471080F0BC00F03FB80000943200205A
:10F6F00010B50E4CA4F12001608801EB0010818947
:10F7000059B1052020700A48022101228180016838
:10F71000BDE810400748FFF75BBE4168012205487D
:10F72000FFF756FE0421217010BD00009432002026
:10F73000F82100202422002030B4094907480B6832
:10F740004268898803EB81015388DB1C0324047021
:10F7500030BC9BB20348FFF7C5BE000094320020C6
:10F76000F821002024220020074910B54888091DEF
:10F7700003F08CFD18B1BDE81040FFF7DDBFBDE818
:10F780001040FFF7B5BF000094320020F0B51D48CF
:10F790001D490125067802248B88A0F12002082E3D
:10F7A00018D2DFE806F00417171A212C2C1601894D
:10F7B000491C01810021418080F80C1002EB0113EB
:10F7C0001B7843B100234418491C89B2A372022953
:10F7D000F4D30570F0BD0123F5E742685288D21CCE
:10F7E0001A448A800470F0BD46880D6802EB061248
:10F7F00056680E60556013818C80062100E0072159
:10F800000170F0BD94320020F82100207047000004
:10F8100010B5040007D0054802F05AFB002801D1BA
:10F8200003490C6010BD0E2010BD0000351B020006
:10F8300004210020F0B505460088374C8DB05028D3
:10F840001ED0522802D0542828D103E0A88800F006
:10F85000B1FF23E006208DF80000A88800F0CAFB65
:10F86000ADF80200A988ADF8041000F067F9A1799D
:10F87000A8880022FEF7D6FA2168684688470DE07E
:10F88000287B01280AD1A87A012807D12889A0F568
:10F890002451023902D1A88800F0C6FF6079FEF732
:10F8A000A1FAC0B108A8FEF7D1F9142208A903A84B
:10F8B000FCF7FEFD002503AE0AE006EB4507617983
:10F8C000B888FEF79BFA10B1B88800F073FF6D1C82
:10F8D0000398A842F1D82079FEF784FAC0B108A8AD
:10F8E000FEF7B4F9142208A903A8FCF7E1FD0025EE
:10F8F00003AE0AE006EB45072179B888FEF77EFAE9
:10F9000010B1B88800F090FF6D1C0398A842F1D8A0
:10F9100003F0C6FF0DB0F0BDFC20002070B586B02E
:10F92000044614216846FCF7DCFD6088ADF804004D
:10F9300000F0C8FAADF8020025780020082207215F
:10F9400005230A2D29D2DFE805F005050C0E101756
:10F95000192B1D208DF809008DF800108DF8082056
:10F960001BE00D200BE00E2009E08DF809008DF85A
:10F9700000108DF8083010E00F2000E010208DF806
:10F9800000000AE08DF8003007E006208DF8000046
:10F99000A0680290A088ADF802006846FFF7C2FA9E
:10F9A00006B070BD70B5050030D01B4800F00EF9F0
:10F9B00000282CD11948FFF72BFF002827D1184821
:10F9C0000021044641601748256000F049FB0028EB
:10F9D0001DD1154804F0A8FB050018D1FEF7ECF97D
:10F9E0002071FEF7E9F96071FEF7E6F9A071FEF704
:10F9F000E3F9E071217918290AD06179182907D033
:10FA0000A179182904D0182802D002E00E2070BD78
:10FA10000325284670BD000065FB01000DF80100BC
:10FA2000FC200020F5FE0100B93E02002DE9F04166
:10FA300086B000F0E1F86846FEF708F900246D464C
:10FA40004FF6FF77DFF834800FE000BF05EB440688
:10FA5000B08800F0CFFAB84205D198F80610B08807
:10FA60000122FEF7DFF9641CA4B20098A042EDD891
:10FA700003F016FF06B0BDE8F0810000FC20002076
:10FA800070B50B4D044695F83711FEF7B7F968B11C
:10FA90005FF0000101EB410005EB8000008AA0420D
:10FAA00001D1C8B270BD491C0829F3D3FF2070BD35
:10FAB000D82A002070B50A4D002400BF04EB440092
:10FAC00005EB800095F83711008AFEF797F920B111
:10FAD000641C082CF2D3FF2070BDE0B270BD0000A2
:10FAE000D82A00202DE9F041124E07460125BD40DD
:10FAF0003068FDF765FB00280DD10F4C20692842C6
:10FB000007D1384601F034F90028E06805D02843D1
:10FB100004E0A8432061BDE8F081A843E0602069CB
:10FB200028432061A1683068BDE8F0410022FDF75C
:10FB300007BB0000344D0200B42100201CB507496A
:10FB40000968002908D0064AD2E90212CDE900125C
:10FB50000022694602F09EF91CBD00000C21002025
:10FB6000904C02003EB504464088174DADF80200A7
:10FB700020782968A0B101281DD002280FD1207952
:10FB800000280CD0608800F09DF9A0F57F41FF3976
:10FB900005D0A9790122FEF745F903F081FE3EBDAB
:10FBA00000208DF8000068468847608800F08AF9D8
:10FBB00000F000FE3EBD01208DF80000A088ADF8E9
:10FBC0000400684688473EBDFC20002010B50400B4
:10FBD0000CD0074802F07CF9002806D10549002224
:10FBE0004A604FF6FF728A800C6010BD0E2010BD77
:10FBF000511B02000C21002010B5074C2068002882
:10FC000008D04FF6FF7002F0FDF8A080BDE810406C
:10FC100003F070BE10BD00000C2100202DE9FC4156
:10FC200080461D48006888B1404600F0E3F9002492
:10FC300003250127A0F57F412646FF390DD000237B
:10FC40006A46082102F038F918B106E00820BDE83C
:10FC5000FC810198841D8688056832462B46214622
:10FC60004046A9DF042804D0082804D00B2807D078
:10FC700002E0112000E00020002FE8D10B20E6E791
:10FC80000027A80701D50125E7E73443F6D0002473
:10FC900026460325E1E700000C2100202DE9FC4168
:10FCA000804621480068D0B1404600F0A3F90746DD
:10FCB000A0F57F40FF380ED001252A466D1C002696
:10FCC000ADB26B460821384602F042F9040008D074
:10FCD000072C26D026E043F20200BDE8FC81082074
:10FCE000FBE7019903230A1D0B604046891DAADF2B
:10FCF000040004D00C2C08D0052C08D008E0082102
:10FD0000384602F0CFF904460CE0012600E000245A
:10FD10000821384602F0AAF900B10324002ECCD104
:10FD200000E00C242046D8E70C2100201CB500F090
:10FD300061F900236A46012102F0BEF808B10020F3
:10FD40001CBD01201CBD00002DE9F041084C0746F8
:10FD50004FF6FF7643F20305324621883846A7DF87
:10FD6000A84203D12088401C2080F5E7BDE8F0813F
:10FD7000082100208188A1F57F42FF3A03D0008846
:10FD800008B101207047002070470EB502780B467D
:10FD9000022A17D1B0F80120ADF80020C1788DF803
:10FDA00002108188ADF8041080798DF8060002AA4F
:10FDB00001A91846FCF7FAFF032202A96846FCF7DE
:10FDC0009BFB08B100200EBD01200EBD70B50E4D8D
:10FDD0000C46297B89B194B1FFF752FEFF2810D061
:10FDE00000EB400005EB8000D0F812102160C18AC2
:10FDF000A180007EA071002070BD082070BD0E2083
:10FE000070BD052070BD0000D82A00202DE9FC41FE
:10FE100005460088102850D1E97D4FF6FF7634461C
:10FE2000CA0705F1080806D021F00100244908445A
:10FE3000B0F86E402EE0287A03282BD0204622E02E
:10FE4000287A20B1012802D002281BD10CE000231F
:10FE50006A460721384602F02FF898B901994046C2
:10FE60001131FCF76BFE0BE000236A460721384690
:10FE700002F022F830B901994046491CFFF785FF8E
:10FE800000B13C46384601F0BDFF0746B04201D004
:10FE9000B442D5D0A888414600F05CFEB4420CD0F4
:10FEA000A888214600F087F8A888ADF80200012054
:10FEB0008DF800006846FFF723F8BDE8FC810000DC
:10FEC000D82A00200A4A002101EB410302EB8303F8
:10FED000DB89834205D101EB410002EB8000008AFF
:10FEE0007047491C0829EFD34FF6FF707047000098
:10FEF000D82A002010B50446007801280FD1608868
:10FF000000F058FC6088FFF711FF002807D0044874
:10FF1000012281796088BDE81040FDF783BF10BDE4
:10FF2000FC20002010B50446007886B0D8B1012826
:10FF300017D10F480122817F6088FDF773FF1421DC
:10FF40006846FCF7CEFA6088ADF80200608800F0E1
:10FF500051F8ADF8040000208DF800006846FEF767
:10FF6000E1FF06B010BDE08802F0F8FEF9E70000FE
:10FF7000C02F0020018811B9421892780AB10120DF
:10FF80007047491C0829F7D30020704710B50C466C
:10FF90000346FFF7EFFF00280AD01888218888421F
:10FFA00005D10822A11C981CFCF7A6FA08B1002074
:10FFB00010BD012010BD02F0C5BC000070B50446A4
:10FFC0000B48007B68B12046FFF77CFF05462046C2
:10FFD00001F02CFF4FF6FF7104468D4206D014B19C
:10FFE00004E0082070BD284602F0ACFC204670BD3D
:10FFF000D82A002010B5FFF743FD07490A7B3AB124
:020000040002F8
:10000000FF2805D000EB400001EB8000C08910BD47
:100010004FF6FF7010BD0000D82A00207CB50646C0
:100020004FF6FF75284614E000236A46072101F0C9
:1000300043FF68B9019930464631FFF7A7FF28B959
:10004000019930462A31FFF7A1FF08B120467CBD57
:10005000204601F0D7FE0446A842E5D128467CBDE3
:1000600070B5050004D01A4C0020217B11B124E0AA
:100070000E2070BD4FF49C711548FCF732FA002039
:10008000207384F83601182084F8370100204FF6D9
:10009000FF7100BF00EB400204EB8202401C1182A2
:1000A0000828F7D3FDF788FE84F8370118280DD00B
:1000B000084801F00DFF0028DBD1217B032905D280
:1000C00044F82150217B491C217370BD042070BD70
:1000D000D82A0020A11B02002DE9F0410F4628B1CB
:1000E0000120FFF727F90120BDE8F081397961B1DE
:1000F0000026264D01290DD0254C4FF0020802297B
:10010000206822D003293BD127E001F045FC0121E2
:10011000397133E05FF0000005EB00110978022926
:100120000CD0401C80B20228F6D30220FFF71CF945
:100130000120FFF7FFF841F61D50D5E705EB00144D
:10014000606801F01FFC267018E00146012211488A
:10015000FFF73EF9A4F804800FE001F013FC0B490F
:1001600022682031498805EB01114B6823604A6001
:10017000A2880A81A4F804800E703E710028B3D0D2
:100180000120FFF7D7F80E20AEE700007432002000
:10019000F821002024220020F8B51A4C20780028ED
:1001A0002ED0206928B10026E06820B1002526B1B4
:1001B00010E00126F8E70125F9E7684652DF052837
:1001C00003D020B1FCF72EFF04E0012602E02169F4
:1001D0000098884785B96088ADF800006946A06836
:1001E00061DF052803D020B1FCF71CFF04E00125E6
:1001F00002E0D4E902018847002EDED0002DD6D0DF
:10020000F8BD00000C220020054940880A88904271
:1002100004D34988884201D80120704700207047E4
:10022000DC20002009892AB1D088491C814218D1DC
:100230000020704790F8A621C2EBC20202EB8202B6
:1002400000EB420212899142F2D0491C198090F8C9
:10025000A611C1EBC10101EB810100EB4100008956
:1002600002E01980D088401E58800120704770B588
:1002700004460D46401C00F012F828B11022691CFB
:10028000601CFCF739F940B1002605F1110104F1B9
:100290001100FCF753FC304370BD0126F5E7002147
:1002A000425C0AB101207047491C1029F8D3002094
:1002B0007047800701D0002070470120704730B59B
:1002C0001488E51C9D4201D90C2030BD02250D5536
:1002D00013881C245B1C9BB21380CC5413885B1CBA
:1002E0009BB21380012807D0022807D0032807D02B
:1002F000042807D0072030BD002004E0012002E0E0
:10030000CD5401E00320C8541088401C1080002008
:1003100030BD00000348017AC90702D00078FEF71B
:100320008FB97047982000202DE9F047224D1F46D5
:100330000E009046814601D0002104E0687DC0B1E6
:100340001D494846163103F0F9FD044601460022D6
:100350004846FFF711F81FB121464846FEF7B6FDA3
:100360000D2C10D008DC74B1042C1AD0082C09D143
:1003700009E00520BDE8F087112C06D0A4F5405017
:10038000023800D003242046F4E7297C3246484650
:10039000FDF748FDE97B42464846FDF743FD002452
:1003A000F1E7297C32464846FDF73CFDE97B4246B1
:1003B0004846FDF737FDE6E7682100202DE9FC41BE
:1003C00017460C00064604D02078C00705D001204F
:1003D00004E000217EDFBDE8FC8102208DF80400EE
:1003E0003046FFF707FE0546A0F57F40FF3808D0EE
:1003F00001A800902B463A462146304600F021F8ED
:1004000006E020782146C007304603D000F07EF891
:1004100004460BE07EDF04004FF00000009007D0A0
:10042000002201232946304603F0DCF914B106E02E
:100430000122F6E79DF80410304603F0FDF920464E
:10044000C9E72DE9F04F85B09A46002590468946C8
:1004500083462E462B4601AA072150460E9F01F0E7
:100460002BFD040008D1029D95F84400183510F0CA
:10047000010601D0029D343558EA04004FF000080F
:100480000FD175B126B905F11200FFF773FD40B128
:100490002A4605F11201584685DF044687F8008098
:1004A00021E00CB1052C1ED199F80000C0070DD039
:1004B00003AB01220721504601F04AFD04000AD196
:1004C0000721504601F058FE040004D14946584621
:1004D0007EDF040007D00721504601F0C7FD10B1B0
:1004E000052800D00324CDF80080387808B1012316
:1004F00000E0002344B100225146584603F072F94F
:1005000005B02046BDE8F08F0122F5E7FEB50F46A5
:10051000064601F081FC0546A0F57F40FF381ED05D
:1005200001AB01220721284601F012FD04000AD187
:100530000721284601F020FE040004D13946304648
:100540007EDF040007D00721284601F08FFD10B19F
:10055000052800D00324012000905CB102E00324B0
:1005600000200090002201232946304603F03AF98A
:100570002046FEBD0122F6E72DE9F041134D0F465E
:1005800016468046697BFDF739FC00281BD04046A3
:10059000FFF730FD0446A0F57F40FF3813D0A97B5C
:1005A0004046FDF72BFC38B133463A4621464046DB
:1005B000BDE8F04101F06ABA324639464046BDE82E
:1005C000F041FEF725BCBDE8F081000018210020B5
:1005D0002DE9F04385B08146FDF704FC002820D0CA
:1005E0006846FDF733FB00246E4617E006EB440532
:1005F0004946A888FDF702FC78B10B4FA888F97B23
:10060000FDF7FCFB8046397CA888FDF7F7FB014627
:10061000A88801234246FFF787FE641C0098A04289
:10062000E4D805B0BDE8F083682100202DE9F0474B
:10063000DFF8ACA0DAF80C009AF8004080469AF88F
:100640000460DAF80890DAF810703AE009EBC405B3
:100650002A7833E002EB42016B68521C03EBC101C4
:10066000AB78D2B2934200D100220B78022B02D099
:10067000032B23D11FE0D1F804C00346014603E059
:10068000614503D00B46C969C1B1F9E7B1B18B42ED
:1006900005D1C06918B9134F0126BE600027D1F8F3
:1006A00000C0C969D96149B10B6863440B6005E0BA
:1006B0000174C06900E000210028F9D169789142F5
:1006C000C8D1641EE4B2C1D2CAE903078AF8046043
:1006D000404502D00120BDE8F0870020FBE7000084
:1006E000C8210020001001402DE9F04705462F48A1
:1006F000002680460778D0F80C904BE0D8F8080028
:1007000000EBC70440E002D02846ED691EE02078E7
:10071000616800EB4002401CC0B201EBC2012070D6
:10072000A278904200D126700A784868012A2DD11B
:10073000027C5ABB8A684260CA6882600A69C260E9
:100740004969816198F8041001B146604268D8F89F
:100750001030DFF85CC0D11A21F07F41614502D230
:100760008268114406E0991A826821F07F418A422A
:1007700002D9511A016000E00660466001218660DE
:100780000174C66103F09EFD002DBCD12078617814
:100790008842BCD17F1EFFB2B0D2D8F80C104945B8
:1007A00002D00120BDE8F0870020FBE7C82100202F
:1007B000FFFF7F00FEB504460027A0F57F40FF380D
:1007C0002FD02046FFF72AFA164E050013D00B2D26
:1007D00015D0112D11D0A5F5405002381CD009209C
:1007E0008DF800002046FFF705FCADF80200ADF8DB
:1007F000044002950DE0022002E001270CE00320F6
:100800008DF800002046FFF7F5FBADF80200ADF8CB
:10081000044031686846884771793A462046FDF7BA
:1008200001FBFEBDFC200020FEB504460027FFF7BB
:1008300035FA1A4D06460C281AD003DCA6B1042E50
:1008400006D128E0112E11D0A6F5405002381CD058
:1008500009208DF800002046FFF7CCFBADF8020020
:10086000ADF8044002960DE0012002E001270CE003
:1008700007208DF80000ADF804402046FFF7BAFBD2
:10088000ADF8020029686846884729793A4620462B
:10089000FDF7C8FAFEBD0820EBE70000FC200020B1
:1008A000F8B5054600780C46002620420FD10020FE
:1008B0008DF800006846FCF7FDFC2878204202D144
:1008C0002043287001269DF80000FCF717FD3046F4
:1008D000F8BD000030B50E4C87B0207810B1002074
:1008E00007B030BD0B4A04AB012507CA83E80700F7
:1008F00007480623401CCDE900050748029068021E
:100900000390064A694604A8FCF782FC2570E7E7D5
:1009100002220020504D0200FC3200205744020009
:1009200098B0FFF7D7FF08B1FCF77CFB0023414AE2
:1009300007211846FCF7BCFB08B1FCF773FB3E4AE5
:1009400001213E48FCF7A2FB08B1FCF76BFB3C4AD7
:1009500040F6CD410320FDF721FE08B1FCF762FB14
:1009600069460020FDF7DCFC08B1FCF75BFB9DF855
:10097000000002285BD00024FDF77AFCFCF7B2F8F7
:10098000204602F017F8FEF71DFE382101A8FBF7FC
:10099000A8FD02208DF8040001258DF806500520E1
:1009A0008DF807000420ADF8140026480690242195
:1009B0000FA8FBF796FD282000241390B420009484
:1009C00014908DF84850204B0FAA214601A8FCF73F
:1009D00063FE08B1FCF726FB1C48FDF759FA08B185
:1009E000FCF720FB03F03AF81C216846FBF779FD81
:1009F0004FF42030CDE900404FF4702002900320E6
:100A00008DF80C001248ADF80E408DF81050CDE96D
:100A100005406846FDF7ACF808B1FCF703FBFCF7AE
:100A2000BAF948DF0028FCD0FCF7FCFAF9E701240A
:100A3000A2E70000542200201BD601003C4C02001B
:100A4000C5E40100862000203914020065EB010096
:100A500005EB010070B5144682880E4605462088D5
:100A6000111D0144921C994201D8FE2A01D90C2083
:100A700070BD521C32542088FF21401C80B220805F
:100A800031542088401C80B220808119288803F0CE
:100A90002FFE2188084480B22080AA8842B1A9682C
:100AA00041B13044FBF704FD2088A9880844208028
:100AB000002070BD072070BDF8B50E4601781446C1
:100AC0000546012901D1687830B12088821C9A42FC
:100AD0002DD8012902D006E00720F8BD697801442D
:100AE000891C994223D8181A801E87B2ADF800706D
:100AF0002188B01C084469467DDF0028EDD12878A4
:100B0000022805D1BDF80010B94201D809210AE038
:100B10000821012805D16878B84202D8ADF8000054
:100B200001E0ADF80070BDF80000FE2801D90C20EE
:100B3000F8BD2288401CB0542088401C80B2208020
:100B400031542088401C2080BDF8001008442080CB
:100B50000020F8BD2DE9F04105460C004FF0FF00E4
:100B600020D04FF6FF77BD421CD00F4E0122284601
:100B700096F83711FDF756F92846FEF781FFFF2852
:100B800003D1FEF797FFFF280CD000EB400106EBE6
:100B900081010D82CF812268C1F81220A288CA8209
:100BA000A2790A76BDE8F081D82A002070B54FF608
:100BB000FF750E46A84201D1002000E0401C84B21F
:100BC00008E02146304602F08CF808B1204670BD9E
:100BD000641CA4B2FF2CF4D9284670BD4907090E45
:100BE000002806DA00F00F0202F1E02282F8141D5C
:100BF00003E000F1E02282F8001400F01F0201215E
:100C000091404009800000F1E020C0F88012C0F857
:100C1000001170472DE9F0478846814601F008FF32
:100C20000124224E0028484618D0FDF76FFE3044BC
:100C300090F848008009032802D0012806D007E078
:100C40001B48006804FA09F4204201D1022100E0A7
:100C500003214846BDE8F04700F07BBB01F0F4FEFD
:100C6000002820D04846FDF751FE0546114F4FF4AD
:100C7000807007EB850100EB8500D1F8102580B26C
:100C800042F00102C1F8102500F072FBB8F1000F2C
:100C900009D04846FDF73AFE56F82000002802D059
:100CA000AC40C7F80443BDE8F087000000300020E6
:100CB00010050050006000402DE9FC41DFF8A480E1
:100CC000044608EB0400002790F930001346C017D3
:100CD0000E46401C01D0082740E0F2781946204615
:100CE000FDF7F0FD0546401C37D0B07848B1A000B4
:100CF00000F1A040D0F8001721F00201C0F8001761
:100D000007E000217378204600910A46019100F027
:100D1000EBFAF078C0B11448317800EB8500D0F8D8
:100D20001025124B1A40C0F810254FF4F8524FF41A
:100D3000403302EA042203EA01410A43D0F81015C5
:100D40000A43C0F8102509E008EB0500327810F8D6
:100D5000481F41EA8211017000E004273846BDE8CF
:100D6000FC8100000030002000600040FFE0FCFF3C
:100D700003490968C14011F0010000D0012070470B
:100D80001005005070B5124D95F8540008B10820B8
:100D900070BD0020411E2A18401CC0B282F83010DD
:100DA0002028F8D300242046FDF77EFD641CE4B221
:100DB0000C2CF8D306210846FFF710FF05494FF029
:100DC0000040C1F80403012085F85400002070BDE4
:100DD0000030002000600040034890F854000028D4
:100DE00000D0012070470000003000202DE9F05FA6
:100DF0001F4E054602200C46C6F808031D48DFF8C2
:100E00007C90002790F82720DFF86C80B11509F15D
:100E1000040A012A10D00221C6F80413012180F827
:100E2000271045600481C760C9F80050CAF8004027
:100E3000C8F80070316018E0C2682AB10220C6F814
:100E400004031120BDE8F09FC56084828B4658469C
:100E500000F0DAFA0028FAD0C8F80070C9F800509B
:100E6000CAF800400220C6F804030020EAE70000A8
:100E70000070004058300020007100402C76004087
:100E800070B5104A05460C4692F82700012804D098
:100E900002EB4501887D10B105E0112070BD12F80C
:100EA000280F401C1070A0798875E079C87521461C
:100EB000284600F06FFAE279A179284600F09AFA04
:100EC000002070BD5830002070B5174A92F82630C7
:100ED0000BB1082070BD09B110B102E0072070BD50
:100EE0001248134B42F80C1B017819601B1D417806
:100EF0001960012494760021D17611770D4D51604F
:100F00006FF00042C5F808230B4A11608178072072
:100F100005F54175FFF762FE022028600448F038AD
:100F20000460002070BD000058300020104D020009
:100F3000F075004000700040047100400549002039
:100F400091F8271019B1044A01211160704711204E
:100F50007047000058300020047000402DE9F04137
:100F60001E4C07460D46E07E10B10820BDE8F0811A
:100F700007B91B4F787F20773846FCF7D9F96560B1
:100F8000386920602800174E4FF0000516D0397FD1
:100F9000207F48B1C6F81051C6F82051C6F8245138
:100FA000C6F84451104804E0C6F81C51C6F8445134
:100FB0000E48C6F804030220FFF710FE207F08B198
:100FC000082000E00420C6F80005E5752576A57523
:100FD0000120E076A5760020C8E7000084300020DC
:100FE000144D0200002000401003020080000200A7
:100FF0002DE9F0411F4B1C7F3CB14FF40052B2EB86
:10100000104F02D01020BDE8F081D3F804C00022B8
:10101000194D4FF404764FF40177BCF1000F05D061
:1010200014B1C5F8086301E0C5F8087393F817E038
:10103000BEF1000F10D01A7E52B1BCF1000F05D0E6
:1010400014B1C5F8046301E0C5F804731120DAE7B0
:1010500018610122197604E0D9750025D8605D7603
:101060001D761CB1BDE8F04100F066B8BDE8F04166
:1010700000F014B8843000200020004010B5064C69
:10108000207F002806D1A07E002803D102F0CAF9F3
:101090000120A07610BD0000843000202DE9F05F13
:1010A000234DA87E104301D102F0BCF9214C6868A1
:1010B00030B14FF40170C4F804030020BDE8F09F84
:1010C0004FF000094FF4A27AC4F844914FF4927B98
:1010D000A8465946204600F09FF905464FF4847112
:1010E000204600F099F907465146204600F094F951
:1010F000064647EA06012943EBD055EA060007D128
:1011000002F068F998F8171098F819008142E0D8B1
:1011100088F817900DB10320D0E70EB10F20CDE76E
:1011200098F81A10012009B12060C6E76060C4E792
:1011300084300020002000402DE9F05F204C002684
:101140004FF48873C4F810614FF4A275C4F8446179
:10115000C4F83405C4F838158AB1D4F8000240F058
:101160002000C4F80002DFF85C80D8F8040048B121
:101170004FF40470C4F804030020BDE8F09F012080
:101180002060F0E79A46A9464FF4927B51462046EC
:1011900000F04DF905464946204600F048F907465B
:1011A0005946204600F043F93D430543EED088F808
:1011B000176008B10320E0E7002FDDD00F20DCE747
:1011C00000200040843000202DE9F047204D0246E9
:1011D000287F38B14FF40050B0EB124F02D01020EE
:1011E000BDE8F08700F078F808B11120F8E7A9759C
:1011F0000023AA60AB82287F28B3164C00264FF448
:1012000090709846C4F820314FF4AC73C4F85881FC
:10121000C4F84425C4F848150121A160696881B962
:10122000824699465146204600F001F90746494654
:10123000204600F0FCF80743F4D000B10F2685F8F3
:1012400016803046CCE7BDE8F04700F005B8000056
:1012500084300020002000402DE9F05F1C4F002565
:101260004FF48E7A2E46C7F81C514FF00108C7F88C
:10127000088003F087F8174CB815616879B123E04E
:101280005F465146484600F0C7F810B9A08AB842F8
:10129000F7D1A08AB84204D003F074F801E0834685
:1012A000B946A08AA17D8842EAD3A08A584501D1D7
:1012B0000F2508E04F465146384600F0ADF80028AB
:1012C000F9D0C7F80C80A6752846BDE8F09F00004D
:1012D00000200040843000200248807D002800D09B
:1012E000012070478430002030B541EA4201DDE939
:1012F000034541EA8301800041EA042100F1A04056
:1013000041EA0541C0F8001730BD30B541EA42015D
:10131000DDE9034541EA8301800041EA042100F14F
:10132000A04041EA0541C0F8001730BD1CB50022BD
:101330000B46009211460192FFF7E7FF1CBD1CB55A
:10134000002100910B46012201911146FFF7DDFFBC
:101350001CBD800000F5E06000F1A040026822F4AE
:1013600040320260026842EA0141016070470000B9
:10137000034908B50844002101600068009008BDD9
:101380000060004002494058012800D0002070470A
:101390000060004010B50A784B78302402F0030258
:1013A00004EA03131A438B784FF4E06404EA03233E
:1013B0001A43CB784FF4805404EA03331A430B7971
:1013C0004FF4E02404EA03431A434B794FF48014AA
:1013D00004EA03531A43030105481844C0F81825CA
:1013E0008A79C979C0F81415C0F8102510BD00001D
:1013F00000700040030103481844C0F81425C0F8E9
:10140000101570470070004002494058002800D075
:1014100001207047007000404058002800D0012093
:101420007047D0F80403084000D0012070474058AE
:10143000002800D00120704710B550B103280CD10E
:101440000220FDF79FF8002807D0BDE81040FBF709
:10145000E9BDBDE8104002F069BB10BD10B50978C8
:101460000A4851B101290FD10068FBF7A9FE0028F5
:101470000AD0BDE81040FBF7D5BD00224FF4701133
:101480000068FBF75DFEF2E710BD00003C4C020077
:101490001FB5044600883A280ED009DC022820D067
:1014A00010280DD011283AD10020FDF76BF811E07B
:1014B00051281AD0552832D1A088132176DF09E0AF
:1014C0000720FDF75FF808B1FBF7ACFDA1881548D0
:1014D000FCF712FD002822D004B0BDE81040FBF755
:1014E000A1BDA088002167DFF4E7A179002916D00B
:1014F000A07B042803D0062801D005280FD102299B
:101500000ED001208DF800004FF4C170ADF804003A
:10151000A0886946A8DF002801D0FBF783FD1FBD26
:101520000220EFE7F42400202DE9F84F05460C4691
:101530000888B5F8AA11884254D195F8A601DFF8B9
:10154000F0A0C0EBC00000EB800005EB400160881C
:101550004FF003094FF00008F0BB2689087904F129
:101560000802F3B250FA86F6052E01D8034400E0D3
:1015700005230B71002315E000EB400603EB830706
:1015800002EB470701EB8606D7F802C0C6F80AC08F
:10159000D7F806C0C6F80EC07F897782401CA6F82F
:1015A00014805B1C0E798642E6D895F8A62100EBE4
:1015B0004000C2EBC20202EB820201EB800005EBAD
:1015C0004202C088128990420ED2F0B205280BD098
:1015D00085F8A501218800E006E02846FDF79EF980
:1015E00001000AD1BDE8F88F85F8A58122886946F7
:1015F0002846FDF70BFB01000BD085F8A781228858
:101600002846FDF7CBFB8AF800902188AAF8021043
:10161000E8E79DF800000028E4D022880121284650
:10162000FDF76AFB2188284600F0F2F8DAE70000AF
:10163000F8280020F8B505460C460888B5F8AA1128
:1016400088424AD195F8A60104F10801C0EBC00018
:1016500000EB800005EB400295F8A50100EB40008F
:1016600002EB800360880A33B0B9002042F602170B
:101670000E880FE000EB400C01EB4C0CBCF804C0F2
:10168000BC4506D100EB400001EB4000408858818A
:1016900002E0401C8642EDD800268DF8006095F8E7
:1016A000A5011179401C884203D101208DF800006A
:1016B00018E085F8A501228869462846FDF7A6FAB4
:1016C00001000BD085F8A76122882846FDF766FB4C
:1016D00009480321017021884180F8BD9DF8000070
:1016E0000028FAD0228801212846FDF705FB218831
:1016F000284600F08DF8F8BDF828002010B50878CD
:10170000094C28B101280DD002280BD1002008E097
:101710008A8949880548FCF781FC08B1FBF782FCFF
:101720000120207010BD000080200020E82600204D
:101730000878002802D14878FBF7F4BB7047087896
:10174000002802D14878FBF7EDBB7047134A10B56B
:10175000002151700179012912D002291DD101897E
:10176000491C01814189491C89B241818289914288
:1017700013D1002102F070F8BDE8104001F00EBC5A
:10178000038A428A4FF480619C1A8C4200DAA1B22B
:10179000114489B241829942EBD010BD0022002051
:1017A00070B5054690F8A6010C46C0EBC00000EBF2
:1017B000800005EB40012288B5F8AA01824224D1BD
:1017C000608848B100212846FDF796FA218828460E
:1017D000BDE8704000F01CB8D4F80A200A60D4F8C4
:1017E0000E00C1F8060021882846FDF797F8010091
:1017F0000BD0002085F8A70122882846FDF7CEFAF5
:101800000248032101702188418070BDF828002022
:101810002DE9F041044690F8A8010E46401C1949F4
:10182000C0B284F8A801C9680327174D4FF0000E15
:10183000884224D284F8A5E194F8A601401CC0B2E5
:10184000C0EBC00101EB810104EB410284F8A60169
:10185000A5F1180101EB800001210068106082F8F9
:1018600004E0304690DF010007D084F8A7E132465B
:101870002046FDF793FA2F706E80BDE8F08184F862
:10188000A7E1F8E7EC200020F8280020F8B51E4D6D
:1018900017460E4601466A6F0020032A33D805F129
:1018A0007804C6F1080C636C63452CD895F8700079
:1018B000104400F00300C0EBC00005EB80001C22C8
:1018C000FAF7F6FD686F401C6867DEB194F84400D3
:1018D00094F840100023084400F0070004EBC00017
:1018E00000900AE007EBC3020098D2E90012C0E9B9
:1018F00000126846FDF744F85B1CB342F2D3606CFB
:10190000304460640120F8BDB43100200389CA1C52
:101910001A4402814289511AC91E41817047000050
:101920002DE9F04700F58055002700F1080402205A
:1019300090460E460880DFF8489012E02046FEF7F9
:1019400019FAD0B1A068D9F80420904201D9C9F899
:1019500004006088318804EB80040844C01C308097
:101960000C34AC4202D22068401CE7D1B8F1000F21
:1019700001D088F80070BDE8F0870127E9E7000092
:10198000E821002001460223014A0248FDF7AABDD2
:10199000484D02002422002003480223034A016824
:1019A0000348FDF79FBD0000F8210020404D0200D4
:1019B000242200202DE9F05F00252F4FDFF8BC80A6
:1019C000DFF8BCA0DFF8BC902C462E464FF0020B8F
:1019D000386800EB06300168414505D12A4A416864
:1019E00089181ED0012908D000214FF4806300BF60
:1019F00050F82120521C0DD121E0002209F10401F0
:101A0000C9F80000FFF78CFFB9F80400022830D0B5
:101A100008200543761CB6B2032ED9D3E8B2BDE840
:101A2000F09F0AEB0411002201F8042B01C18A1D6A
:101A3000FFF776FF641C45F00205A4B2EAE7491CF3
:101A40009942D5D3D9F80020494662B10AEB041176
:101A500081F800B048600A48A1F808B020304480FE
:101A6000641CA4B202E00860A9F804B045F00105C6
:101A7000D0E70420CDE7000024220020DEC0ADDE48
:101A800074320020F821002002FEE10E70B5184DDE
:101A90000E46044623CD86B08DE82300154DADF8E3
:101AA0000420ADF802408DF80630E97B2046FCF7B3
:101AB000A5F918B13046FEF781FA0FE0072130464C
:101AC00000F0D4FA50B1052808D109218DF80C1086
:101AD0000490ADF80E4003A8FDF736FA697B0022AA
:101AE0002046FCF79FF96846FDF72EFA06B070BD58
:101AF000D84C020018210020F0B585B00746FCF74D
:101B000071F9002814D06846FCF7A0F800246D464F
:101B10000BE000BF05EB44063946B088FCF76EF9D0
:101B200010B1B08802F0BAFA641C0098A042F1D853
:101B300005B0F0BD08B501218DF800104088ADF862
:101B40000200024801686846884708BD0421002059
:101B50007FB504460078114D012815D12079012860
:101B600012D16088002302AA012100F0A5F958B91A
:101B700002208DF800006088ADF8020001208DF889
:101B80000400296868468847A888A0F57F41FF3986
:101B900003D0BDE87F4001F0ADBE7FBD0C21002029
:101BA00070B588B0040035D02078002832D1207973
:101BB00007282FD16088002301AA072100F07CF9B3
:101BC000002827D14FF6FF7630461EE0002303AAF7
:101BD000072100F071F9B8B96088A84214D00499BF
:101BE0000298FEF744FB78B16088FEF76BF9ADF818
:101BF000160000208DF814006088ADF81800ADF8CC
:101C00001A5005A8FDF77CF9284600F0FBF80546B8
:101C1000B042DBD108B070BDF0B58BB004461421E2
:101C20006846FAF75EFC6088ADF80400FEF74AF9F2
:101C3000ADF80200277801210823072200204C4D2F
:101C40004FF6FF760A2F6CD2DFE807F00510263C2E
:101C5000444E6C90888A8DF8002022798DF80820F7
:101C60008DF8090003908DF80A107CE08DF80020B3
:101C700022798DF808208DF80900A26803928DF86A
:101C80000A10696800296ED0A26891426BD1686021
:101C9000BDF80410A98113E08DF8003021798DF88A
:101CA00008108DF80900A1680391E1680491696842
:101CB000B1B3A268914256D16860A968491EA96073
:101CC000039050E08DF8002022798DF808208DF8DF
:101CD0000910F5E78DF8003020798DF808008DF8AF
:101CE0000910A06804903EE009208DF800002878D3
:101CF000400738D53446304600F084F8A04232D14F
:101D00002878142120F00400287005A8FAF7E9FBD0
:101D10000B208DF81400ADF81840ADF8164019E00E
:101D20001BE023E00A208DF80000A06802902878CC
:101D3000410718D520F004002870142105A8FAF7EF
:101D4000D0FB0C208DF81400ADF81860ADF81660CB
:101D5000A068079005A8FDF7E5F804E0052000E07D
:101D600006208DF800006846FDF7DCF80BB0F0BDEA
:101D7000C02F00203EB504460078002811D12079FC
:101D800007280ED1074A07CA8DE807006088FEF7CA
:101D900099F8ADF802006088ADF804006846FDF7D8
:101DA000D3F83EBDC04C020010B500780B4C08289B
